S0150000505332436F6E74726F6C6C65722E7372656316
S113000012C033C020C01FC01EC01DC01CC01BC0F6
S11300101AC019C018C017C016C015C014C013C028
S113002012C011C010C011241FBECFE5D4E0DEBF42
S1130030CDBF20E0A0E6B0E001C01D92A037B2071A
S1130040E1F74BD095C0DCCF81E081BB80EF82BB70
S113005014BA15BA17BA18BAE0E6F0E080E790E0EF
S11300601192E817F907E1F708951F920F920FB65E
S11300700F9211248F93EF93FF93919B0AC082E810
S113008086BB8FEF87BB90989299FECF909A17BA50
S11300901CC0E5B3EF70AC9B0DC0F0E0E05AFF4F1D
S11300A0808186BB8FEF87BB90989299FECF909A00
S11300B017BA0BC0AD9B09C086B3F0E0E05AFF4FFE
S11300C0808390989299FECF909AFF91EF918F91AF
S11300D00F900FBE0F901F901895B6DF60E040E0C0
S11300E050E030E020E090E0A0E6B0E070E0E1E62F
S11300F0F0E005C0282F03C0282F01C0282F82B3A9
S113010080718917D9F0811114C03F5F323098F0A3
S11301103A3018F03B3039F00EC05695969B0DC01E
S11301205068982F0BC0F8945C937894982F372FCD
S113013005C0982F03C0982F01C0982F82B38072F6
S11301408217E9F28111D6CF4F5F4230A8F24A30CC
S113015018F04B3039F0D0CF6695979BCFCF6068BD
S1130160282FCDCFF89460837894282F472FC7CFBA
S1070170F894FFCF2D
S9030000FC
